:0E000000A9C0FECFFDCFFCCFFBCFFACFF9CFCA
:10000E00F8CFF7CFF6CFF5CFF4CFF3CFF2CFF1CFC6
:10001E00F0CFEFCFEECFEDCF1027E80364000A004C
:10002E00010000100001100001004D6F6462757335
:10003E0020416472657373005553415254205370BE
:10004E00656564003132303032343030343830301F
:10005E00393630303139323030005061726974794E
:10006E004F6464004576656E4E6F53746F70204218
:10007E006974730031003200526573746F726500DB
:10008E00596573004E6F6601010B01740105150170
:10009E009A01031F01AD01022901BB0102330100C8
:1000AE002030080000000000000061736400203C56
:1000BE00004F6B002578200080C00D0066013800CF
:1000CE000B007401460004008001520004008501FB
:1000DE00560004008A015A0004008F015E000500DC
:1000EE009401620006009A0168000300A1016E00EF
:1000FE000400A50172000200AA0176000900AD01FC
:10010E0078000100B70182000100B90184000700E8
:10011E00BB0186000300C3018E000200C7019200DE
:10012E001900CA0194000300E301AE000300600150
:10013E00BC0003006301BF0006000400B200020011
:10014E00E801C6000000F894EE27ECBBF1E0FBBF1F
:10015E00EBBFE5BFF8E1F1BDE1BD8DE0A2E0BB274D
:10016E00ED938A95E9F780E094E0A0E6ED93019790
:10017E00E9F7E8ECF0E085919591009761F0A59193
:10018E00B59105901590BF01F00105900D92019764
:10019E00E1F7FB01F0CFEFE5EDBFE4E0EEBFC0E627
:1001AE00D1E0C6C2E199FECFE981FA81FFBBEEBB79
:1001BE00E881EDBBE29AE19ADBC3E199FECFE881DB
:1001CE00F981FFBBEEBBE09AEDB356C31A93E981FA
:1001DE00AC81EA1741F4EB81AE0FA150EFE0EA23B8
:1001EE00AA81EA2B05C0EC81EF70AA81EA2BE150BF
:1001FE00EC830AD51E2FE12F1881259608951A93A8
:10020E0007D5A381EFE0EA230E2E05D51196EC91CA
:10021E00E0291E2FE12FF8D4A981EA1729F0E12F4A
:10022E00FDD4EB81EA93BEDFFDD4EF5F1E2EF3D437
:10023E000C90F1D41296EC91E00DE11591F4EBD403
:10024E00EC91AA81BB811396EC93ECD4E7D4AC81EC
:10025E00BD810C90AC81BD811296EC91A02DAE0F9C
:10026E0008C0E0D4EF5FEC93DDD4D8D4EC81FD81EF
:10027E00A381E1E033D6EA1BC7D4EF5FEA9392DFA6
:10028E00188124960895D2D4EC91A881B981139641
:10029E00EC93CFD4EF5F1E2EC9D40C90C7D4129618
:1002AE00EC91E00D1E1680F4C4D4AED4EF93C1D4FD
:1002BE00EF5FAAD4E150AF91EA1721F4BAD4EF5F01
:1002CE00EC9301C001C0E5CFD7C210D610E01830B4
:1002DE0078F4AD98E12FA1E08DD5AA81EA230E2FF7
:1002EE00003011F0AA9A01C0AA98AD9A1F5FEFCF05
:1002FE0004D63EC31A93F30185D51E2F1A93E5DF5C
:10030E00162D1A93E2DFAB9AAB98199108952397A5
:10031E00E0E0E883E983EA83E7D500E034E60330E2
:10032E00B8F4E32FAF8180D51E2FE02FF0E0DE0171
:10033E001496AE0FBF1FE12FE05DEC93E32FAF815C
:10034E0099D5EF830F5FA32FEAE06ED53E2FE7CF4F
:10035E0074D4FE01349676D4C3D2CDD528960895A2
:10036E001A93E8EBF0E06ED480E01AD422966DD4A6
:10037E00E653FE4FDF019DD56DD45FD44CD4AE361F
:10038E00E0E0BE0721F0EC81FD8164D402C0BA9298
:10039E00BEDF41D461D471D51E2F57D4E253FE4F28
:1003AE00E081E11719F4E0E6F1E054D434D4A53637
:1003BE00E0E0BE0774F0ECE0EA9351D44FD2E3E6EE
:1003CE00F1E048D4D20148D450D52F014BD4EA9352
:1003DE00E9DE18812696089551D2E881F981EA3036
:1003EE00A0E0FA0719F443D4AB2C22C1EB30A0E005
:1003FE00FA0749F43CD4AA928ADFA394EFEFEA15E8
:10040E0008F4AA2415C1E431A0E0FA0731F4E09112
:10041E00CF01F091D0011ED40BC1E531A0E0FA0757
:10042E0019F42AD49DDF04C1E631A0E0FA0719F4CD
:10043E0029D496DFFDC0E731A0E0FA0719F428D4DD
:10044E008FDFF6C0E831A0E0FA0719F427D488DF71
:10045E00EFC0E931A0E0FA0719F426D481DFE8C035
:10046E00EE31A0E0FA0731F4E091D401F091D5011C
:10047E00F1D3DEC0EF31A0E0FA0711F41BD4D8C0DF
:10048E00E032A0E0FA0711F41DD4D2C0E132A0E0B0
:10049E00FA0711F41FD4CCC0E832A0E0FA0731F409
:1004AE00E091D901F091DA01D5D3C2C0E932A0E0D2
:1004BE00FA0711F417D4BCC0EA32A0E0FA0711F41F
:1004CE0019D4B6C0E233A0E0FA0731F4E091DE01B0
:1004DE00F091DF01BFD3ACC0E333A0E0FA0711F413
:1004EE0011D4A6C0E433A0E0FA0711F413D4A0C0CF
:1004FE00EE36A0E0FA0781F4EA2DE150BE2EE6E6D4
:10050E00F1E0A0D385D39ED3E0E0EA9329DFE3E1C7
:10051E00F0E098D3BA928BC0E23DA0E0FA0739F42E
:10052E00E1E000D4A9D31CDFE7E6FFD37FC0EC3DAA
:10053E00A0E0FA0739F4E2E0F5D3A4D311DFE3E348
:10054E00F4D374C0E63EA0E0FA0739F4E3E0EAD350
:10055E009FD306DFE9E1E9D369C0E03FA0E0FA07E7
:10056E0039F4E4E0DFD39AD3FBDEECE0DED35EC0F9
:10057E00EA3FA0E0FA0739F4E5E0D4D395D3F0DEF4
:10058E00E6E0D3D353C0E633A1E0FA0739F4E1E055
:10059E00E093D8018FD3E0E3CAD349C0E034A1E0A1
:1005AE00FA0749F4E2E0E093D8018CD3EFECCE22C7
:1005BE00E0E2BDD33CC0EA34A1E0FA0739F4E3E04F
:1005CE00E093D80187D3EFECB9D331C0EA39A1E07B
:1005DE00FA0739F4E1E0E093DD0184D3E7EFAED31F
:1005EE0026C0E43AA1E0FA0739F4E2E0E093DD0137
:1005FE0081D3E8E09CD31BC0EE3FA1E0FA0731F4B3
:10060E00E1E0E093E2017ED3E4E509C0E830A2E048
:10061E00FA0771F4E2E0E093E2017CD3E0E0E093CC
:10062E00E701E2E1F0E00ED3E091E701EA93BADDF3
:10063E0023C1E1E1F0E089D3CE2EE6E8CE2AE0E157
:10064E00F0E083D3DE2EE2E1F0E07FD3E093E7012A
:10065E00E3E1F0E07AD3BE2EAB2CE0E0EBB9E8E0BC
:10066E00EAB9C0BCE6E8E0BDE0E0E0BDD9B8ECE038
:10067E00E9B9E2ECF0E0E6D2EC2DFF27662777270A
:10068E0020D484E08DD22696ED2DE73611F4E1E0EC
:10069E000FC0E33311F4E2E00BC0E93111F4E3E0F3
:1006AE0007C0EC3011F4E4E003C0E63019F4E5E0E5
:1006BE00E093D301EC2DE870E03011F4E1E003C0DB
:1006CE00E83019F4E2E0E093DD01EC2DE073E03068
:1006DE0011F4E3E007C0E43111F4E2E003C0EE31BF
:1006EE0019F4E1E0E093D801A091E701A43571F48B
:1006FE00E3EEF1E0A7D2C7DDE3EEF1E0A4E0E6D34E
:10070E0065DD6E2E7724F6DDE1E00CC066247724DD
:10071E00AC98AB9AAB98AC9AE3EEF1E093D26A92B6
:10072E006EDDE2E0E093E201E0E1EA93E7D00895C6
:10073E00E1B3E779E1BBE2B3E866E2BBEEE7E4BB27
:10074E00AC9A929876DFA99AE8EEF3E000D3A998D6
:10075E008ED282D22F01869915C0FBD2869912C0F5
:10076E00869BFECF992031F4F20131962F01E1E004
:10077E009E2E07C0E2E09E2EF201AAE0B0E04FD31B
:10078E002F01EAD283990AC0E4D2839907C0839BD2
:10079E00FECF62D22F0188249924DED285992DC0F6
:1007AE00D8D285992AC0859BFECF992069F4F20193
:1007BE003A962F018394E2E3F0E0E415F5051CF47C
:1007CE004BD22F01882418C0F20131962F01C7D2C7
:1007DE00DF01E453FE4F6081FD01E353FE4FE081E4
:1007EE00A62FAE0FF201B0E0EA17FB0729F4B7D23D
:1007FE00E353FE4F40805524AFD2ADCFFFCFE881FB
:10080E00E07111F0C29A01C0C298E881E07211F055
:10081E00C39A01C0C398E881E07411F0C49A01C074
:10082E00C498E881E07811F0C59A01C0C59881E0BE
:10083E008A95F1F7C19A83E08A95F1F7C19883E022
:10084E008A95F1F78AC0E8818FD2E881E295E88334
:10085E00E8818AD281E28A95F1F77FC0E881F0E0E3
:10086E00E851FE4FE081A981EA0F80D2E981E09341
:10087E00EC01E881E093ED0122960895E2E076D254
:10088E00E3E0F0E064D2ECE071D2E9D1DCDFE3E04A
:10089E00F0E05DD2E0E0E093ED01E093EC0108952D
:1008AE00A881AA3031F0E091EE01A091EC01AE17D3
:1008BE0068F0E0E0EA93E091ED01EF5FE093ED0187
:1008CE00EA93CCDFA881AA3009F447C0E091EC018D
:1008DE00EF5FE093EC01979AE88148D297983DC07C
:1008EE001A93A981BA81ED91A983BA831E2FE030A4
:1008FE0019F01A93D5DFF5CF18813AC0BA9ABB9A80
:10090E00BC9ABD9AB99A8F9AB89AC1989798C0987E
:10091E00E881E093EE01E058E093EA01E881E054CB
:10092E00E093EB0116D2E0E31FD222D221D283E470
:10093E008A95F1F7E0E218D283E48A95F1F7E8E2BE
:10094E0015D2E4E013D2E5E811D2E6E00FD296DF3D
:10095E0004C05D9BFECFE881ECB921960895EA8133
:10096E00EA93F7DF63D1ED91FD913196FE93EE930D
:10097E00239608952697B6D210E0AC85BD85E0E0AB
:10098E00F0E0ED93FC93EA89FB893196EA8BFB8BC1
:10099E003197E4912E2FE03009F4FCC0E12FE030C6
:1009AE0031F4253211F411E001C0E7D1F2C0E1308B
:1009BE00A1F4253211F4E1D1EBC012E040E000E0E9
:1009CE002D3211F401E0E5C02B3211F44BE2E1C0FF
:1009DE00203211F440E2DDC002C0E23039F450E0C2
:1009EE0013E0203311F40068D4C003C0E33009F0E3
:1009FE00D0C0203310F02A3308F007C0AAE05A9F67
:100A0E00502DE22FE0535E0FC4C0E22FE33639F4CF
:100A1E00BCD1BED1BAD1A481AA93BED1B9C0E3379D
:100A2E0029F4C1D1C2D1DBD01E2F07C0E03749F463
:100A3E00BAD1BBD1DED01E2F086002600F7730E036
:100A4E002DC0E43611F0E93611F4046002C0E5372A
:100A5E0029F4E6E2F0E0B0D115E00BC0E83511F470
:100A6E00086003C0E83709F093C0E0E3F0E0A4D1DA
:100A7E0014E002FF11C097D1A2D1AB85AA2332F4A4
:100A8E00EA85FB85B3D1EA87FB874DE2403011F052
:100A9E001F5F01C00B7F02C086D191D100FD10C037
:100AAE00151770F407FF08C002FF04C00B7F242F38
:100ABE00115001C020E301C020E25FD15150F0CFB0
:100ACE00312F01FF15C0303091F003FF05C0EE81CC
:100ADE00FF81259171D105C0AE81BF812D91AE836D
:100AEE00BF834BD1503009F051503150ECCF47C03D
:100AFE0020E3EE81FF81E1D1E887F987EE81FF8166
:100B0E0032965AD1E885F985AA85BB85AE17BF07FF
:100B1E0050F02F5FA885B985EA85FB85EA1BFB0B94
:100B2E00EA87FB87EFCF2A3328F003FF02C0295F45
:100B3E0001C0295D04FD19C0213320F4A885B985B3
:100B4E00119709F409C0531710F000FF01C011C02E
:100B5E0020E207FF0AC020E3006102FF06C00B7F00
:100B6E004A931AD1503009F0515007D1503009F044
:100B7E0051503150A885B985129708F0B9CF00FFB2
:100B8E0007C0503029F05150E0E2EA9305D1F9CF79
:100B9E0010E0F9CEAC85BD858CD1ABD164960895AD
:100BAE00FF92F82E2697A2D1DE0114961BD18D014D
:100BBE00E0E0EC83ED83EE83EF83DE01189612D135
:100BCE0078D140D01A930A93E6EBF4E03BD0FE01C5
:100BDE00389638D0CFDE91D12896FF900895A991FE
:100BEE00B991EE27FF276D91662311F03196FBCF59
:100BFE000895AA27BB27E991F9910590002011F0DD
:100C0E001196FBCFFD010895F0E0FA93EA93D5CA51
:100C1E00EA81FB810895AA81BB810895F0E0FA93E1
:100C2E00EA930895F8DF1396EC910895A881B9819F
:100C3E000895FCDF1396EC910895E0E0EA93E1E06D
:100C4E00EA930CCEFA93EA930895E981A5E0EA9F20
:100C5E00F0010895F7DF44CEEAE0F0E00895E1E018
:100C6E00EA930895E0E1F0E0EDDFE9B10895E09157
:100C7E00CA01F091CB01EECFE0E8F1E0E3DFC8DF8F
:100C8E00E1DFEDCFE5E8F1E0DDDFC2DFDBDFE7CF6F
:100C9E00EAE8F1E0D7DFBCDFD5DFE1CFEFE8F1E046
:100CAE00D1DFB6DFCFDFDBCFE4E9F1E0CBDFB0DFC2
:100CBE00C9DFD5CFE1EAF1E0C5DFAADFC3DFE2E0AD
:100CCE00EA934ECBE5EAF1E0BDDFA2DFBBDFE2E067
:100CDE00EA9346CBEAEAF1E0B5DF9ADFB3DFE2E072
:100CEE00EA933ECBE7EBF1E0ADDF92DFABDFE3E083
:100CFE00EA9336CBE9EBF1E0A5DF8ADFA3DFE3E091
:100D0E00EA932ECBE3ECF1E09DDF82DF9BDFE4E0A4
:100D1E00EA9326CBE7ECF1E095DF7ADF93DFE4E0B0
:100D2E00EA931ECBE093D3010895E9B99BCFCE2A67
:100D3E00C0BCE1E1F0E086DFCA920895CE22C0BCCD
:100D4E00E1E1F0E07FDFCA9208957CDF36CA7ADFF8
:100D5E003DC0E4E1F0E0FBCF5A924A923DCBE82D44
:100D6E00A5E0EA9FF0010895EA9349CDEA936BCD91
:100D7E0083E48A95F1F7E0E3F7CF2A93ED85FE85BC
:100D8E0061DFE989FA8909950895E889F989089555
:100D9E003497E88BF98B0895ED85FE8553DFE9894D
:100DAE00FA8909950895F1DFF3CFA889B9891496C8
:100DBE0080D0EE83FF8346CFEE83FF830895A8890C
:100DCE00B989149676D0EA87FB870895E991F9914F
:100DDE00309639F084EF91E00197F1F7A8953197AD
:100DEE00C9F708950024AF0DB01D0895F195E19552
:100DFE00F0400895EE230E2EEA2F19F0EE0F0A940E
:100E0E00E9F70895EF2FFF27E7FDFFEF0895FA9F0B
:100E1E00F02DEB9FF00DEA9FE02DF10D08953BD0E4
:100E2E00F6DF0EF4E3DF0895002498E0AA0F001C0D
:100E3E000E1A10F40E0E01C0A1609A95B9F7EA2FA2
:100E4E00A02D08950024112490E1AA0FBB1F001CB1
:100E5E00111C0E1A1F0A18F40E0E1F1E01C0A160DF
:100E6E009A9599F7FD01D001089515D0EBDF0EF498
:100E7E00BDDF0895D9DFEA2F0895E894B7FF04C0C7
:100E8E00A095B09511966894F7FDB0DFDBDFFD01FC
:100E9E000EF4ACDF0895E894F7FF02C0A7DF689464
:100EAE00B7FF06C0A095B095119600F8039400FA0E
:100EBE000895ED91FC91119708950590F491E02D10
:100ECE0008957A936A93FA93EA930895BB27EA0FEB
:100EDE00FB1F02900A921197E1F708951A2EAE2F7A
:100EEE00E12D08955A934A933A932A931A930A93AB
:100EFE0008955D814C813B812A8119810881089575
:00000001FF
